:020000040800F2
:1000000048080020650100080D180008B113000819
:1000100000000000000000000000000000000000E0
:10002000000000000000000000000000111800089F
:1000300000000000000000000F180008131800085E
:100040007701000800000000770100087701000830
:1000500077010008770100087701000877010008A0
:100060000000000077010008770100087701000810
:100070007701000877010008770100080000000000
:100080007701000800000000000000007701000870
:1000900000000000770100087701000877010008E0
:1000A0007701000877010008770100087701000850
:1000B00077010008000000000000000000000000C0
:1000C00000F002F800F03EF80CA030C80838241800
:1000D0002D18A246671EAB4654465D46AC4201D180
:1000E00000F030F87E460F3E0FCCB6460126334274
:1000F00000D0FB1AA246AB4633431847981E0000B7
:10010000B81E0000103A02D378C878C1FAD8520756
:1001100001D330C830C101D504680C6070470000BD
:100120000023002400250026103A01D378C1FBD813
:10013000520700D330C100D50B6070471FB51FBDFB
:1001400010B510BD00F0FAF81146FFF7F7FF01F007
:1001500073FE00F012F903B4FFF7F2FF03BC00F0E6
:1001600019F900000748804707480047FEE7FEE707
:10017000FEE7FEE7FEE7FEE704480549054A064BB1
:100180007047000083180008C100000848020020E2
:1001900048080020480400204804002001E004C072
:1001A000091F0429FBD28B0701D50280801CC907D7
:1001B00000D00270704700290BD0C30702D0027034
:1001C000401C491E022904D3830702D50280801CEB
:1001D000891EE3E70022EEE70022DFE700220309A1
:1001E0008B422CD3030A8B4211D300239C464EE052
:1001F00003460B433CD4002243088B4231D303090E
:100200008B421CD3030A8B4201D394463FE0C309BF
:100210008B4201D3CB01C01A524183098B4201D3D7
:100220008B01C01A524143098B4201D34B01C01AC2
:10023000524103098B4201D30B01C01A5241C3083A
:100240008B4201D3CB00C01A524183088B4201D3A9
:100250008B00C01A524143088B4201D34B00C01A95
:100260005241411A00D201465241104670475DE0AA
:10027000CA0F00D04942031000D34042534000222D
:100280009C4603098B422DD3030A8B4212D3FC22D6
:10029000890112BA030A8B420CD3890192118B4255
:1002A00008D3890192118B4204D389013AD092116B
:1002B00000E08909C3098B4201D3CB01C01A524126
:1002C00083098B4201D38B01C01A524143098B42EF
:1002D00001D34B01C01A524103098B4201D30B01D8
:1002E000C01A5241C3088B4201D3CB00C01A5241FD
:1002F00083088B4201D38B00C01A5241D9D24308E4
:100300008B4201D34B00C01A5241411A00D2014620
:10031000634652415B10104601D34042002B00D58A
:100320004942704763465B1000D3404201B500204C
:10033000C046C04602BD704770477047754600F022
:1003400025F8AE46050069465346C008C0008546FC
:1003500018B020B5FFF710FF60BC00274908B6466B
:100360000026C0C5C0C5C0C5C0C5C0C5C0C5C0C5C4
:10037000C0C5403D49008D46704710B50446C04693
:10038000C0462046FFF7E7FE10BD0000004870475A
:10039000E401002001491820ABBEFEE72600020060
:1003A000704772B6FEE7000070B5044600F0C8F86A
:1003B0000546601C02D004480078241800F0C0F8FC
:1003C000401BA042FAD370BD04000020F0B500230A
:1003D00003249AE02A4601259D402A407ED00E79CA
:1003E000B607B60F012E01D0022E16D18668274619
:1003F000B4465E00B646B7406646BE43B446CF68D4
:100400007646B7406646374387604668AE430D7907
:10041000ED06ED0F9D40354345600D79ED43AD0789
:1004200008D0C5685F002646BE40B5438E68BE4012
:100430002E43C6600D79AD07AD0F022D0ED1DD083C
:10044000AD002D18AC462D6A5E07F60E0F27B7409B
:10045000BD430F69B7402F4365462F6205685F00B3
:100460002646BE40B5430E79B607B60FBE402E43B2
:1004700006604D68AD03AD0F46D09E08264DB60010
:100480007519AC462D6E9E07F60E0F27B740BD437B
:1004900005273F07B84201D100270FE01F4FB842A0
:1004A00001D101270AE01E4FB84201D1022705E021
:1004B0001C4FB84201D1032700E00527B7402F4366
:1004C000154D664637662D684E689543F60200D591
:1004D0001543114F3D607D68954300E014E04E6880
:1004E000B60200D515437D600B4D80356E684F68B0
:1004F0009643BF0300D516436E602E684F6896433F
:10050000FF0300D516432E605B1C0A681546DA40CF
:1005100000D05FE7F0BD000000180240000400506A
:1005200000080050000C00500069084000D0012075
:100530007047002A01D081617047816270470000D6
:1005400001488068704700000400002070B5024632
:1005500040325378202B1CD11378012B19D0012362
:10056000137024245470046825689D432560046832
:1005700025681E03B5432560046825680D43256082
:10058000006801681943016020205070002010703D
:1005900070BD022070BD70B5024640325378202BEA
:1005A0001BD11378012B18D001241470242353700D
:1005B00003681D68A5431D6005682B680F26360279
:1005C000B3430902194329600068016821430160AF
:1005D000202050700020107070BD022070BD0000FF
:1005E00070B5040006D025464035687800260028FE
:1005F00002D005E0012070BD2E70204600F0D2F838
:1006000024206870206801684908490001600F21B2
:100610006068090688432168086121688A680120AA
:10062000C00382438A60E1680129A16808D02122C1
:100630009202114322689160E168022902D005E02C
:100640000143F7E701212268C902516021684A6825
:100650000F4B1A434A602168CA688243CA606169C5
:1006600020690843A169090208432168C860216A1A
:10067000E06908432168086020680168012211438D
:1006800001606664202068702663AE70002070BD33
:1006900000800002FFB5054604464035687881B009
:1006A000202878D12878012875D001202870FFF7FC
:1006B00047FF0746012200901923D103204600F08E
:1006C0002BFF00283CD1212068701020A870002644
:1006D000666403986062049860856663618D2F4844
:1006E000FF2903D9FF22228500903BE0618D2185FF
:1006F00000903DE02046029900F0F8FE16E000F080
:1007000058FF00281CD1606A216800788862606AFE
:10071000401C6062608D401E6085208D401E80B24E
:100720002085618D002901D000280CD0608D0A99A8
:1007300000283A462046E2D100F015FF00281CD0E0
:10074000012005B0F0BD00970022802120460A9BC1
:1007500000F0E2FE0028F3D1608DFF2805D9FF22CA
:100760002285009601231B06C4E7608D2085009634
:10077000208D0123C2B25B06BCE721682020C8613E
:1007800021684A68064B1A404A606870AE702E7045
:100790000020D6E7FFE70220D3E70000002000801A
:1007A00000E800FE30B58DB0044614216846FFF71E
:1007B00013FD182105A8FFF70FFD1749206888428F
:1007C00028D1202000250590079505A800F0A8F85D
:1007D000002801D0FFF7E5FD104C606B01210843B4
:1007E0006063606B029508400B900320400200900C
:1007F0001220019006200490052003956946000709
:10080000FFF7E4FDE16B012040050143E163E16B8B
:1008100001400B910DB030BD00540040001002406B
:1008200002488168027889188160704704000020BE
:1008300010B50848002401688215114301600320A7
:1008400000F00AF8002801D0012401E000F028F8A7
:10085000204610BD0020024070B50F4E00243178B4
:100860000546002915D07D20C000FFF7B7FC0146E2
:100870000A480068FFF7B2FC00F08AFC002808D1A3
:10088000042D06D200222946401E00F01FF8756094
:1008900000E00124204670BD04000020100000206C
:1008A00008B5094801680122114301600068104041
:1008B000009005484038C26B01040A43C263C06B14
:1008C0000840009008BD00004010024010B501F043
:1008D000FFF910BD10B50F4C21680322520291435D
:1008E00001432160C11FFF39FA390ED10A480621A0
:1008F000006848430949FFF771FC401C02E00028EA
:1009000005D0401E61694905F9D4002010BD0320BF
:1009100010BD0000007000401000002040420F0099
:10092000F8B50446006800264D4D800358D54C4864
:1009300000274038C06BC00009D449484038C26B1A
:1009400001040A43C263C06B084001270090454878
:100950000168821511430160FFF7F2FD009005E088
:10096000FFF7EEFD0099401A022825D83D4800689F
:10097000C005F5D5E8690321090208400FD0616977
:1009800081420CD0E86903210902EA698843012108
:1009900009040A43EA61EA698A43EA61E861C00737
:1009A0000FD0FFF7CDFD009008E0FFF7C9FD0099DB
:1009B000411A2D48814201D9032609E0E8698007E0
:1009C000F3D5E86903210902884361690843E861B6
:1009D000002F05D022484038C26B01048A43C2630D
:1009E0002078C00705D068696168800880000843E6
:1009F00068612078800606D5686903210903884369
:100A0000A168084368612088400411D5686921699C
:100A100080008008084368610121206989078842B5
:100A200006D10F484038C168012212041143C16049
:100A30002088000512D56869032189038843E1688D
:100A4000084368610121E0688903884206D10448AF
:100A50004038C168012212041143C1603046F8BD1C
:100A6000401002400070004088130000F8B50F46A7
:100A7000060043D04D4D28684007400FB84213D2BE
:100A80002868C008C00038432860FFF759FD0446B5
:100A900005E0FFF755FD011B4548814261D82868F4
:100AA0004007400FB842F4D13068424C81070DD561
:100AB000400704D5A068072109030843A060A06887
:100AC0000F2109028843B1680843A0603078C0074D
:100AD00032D0706801280AD002280BD000280FD02D
:100AE0003449403103280ED0C969890704E02168E0
:100AF000890301E021688901002906DB0120F8BD96
:100B000021684905F8E7096AEFE7A168C908C90043
:100B10000143A160FFF714FD009006E0FFF710FD10
:100B20000099411A224881421BD8A0683821084008
:100B30007168C9008842F1D128684007400FB84267
:100B400017D91A480168C908C90039430160FFF77D
:100B5000F7FC054607E0FFF7F3FC411B1448814210
:100B600001D90320F8BD114800684007400FB84282
:100B7000F1D13078400706D5A068072109038843E2
:100B8000F1680843A06000F031F8A1683C228909AF
:100B90001140094A515CC906C90EC840074908609E
:100BA00007480068FFF758FEF8BD0000002002402B
:100BB0008813000000100240341F000810000020BD
:100BC000080000200648074900688968064A490469
:100BD000490F8900515CC906C90EC8407047000022
:100BE0001000002000100240741F000810B51C4CBB
:100BF000A0688006410F1B4815D0A1688906490FDF
:100C000001290FD0A1688906490F022911D0A068D7
:100C10008006400F04281DD0A0688006400F0328DE
:100C20001BD0002010BD216889044A0F012191408A
:100C30000DE0E168E1684906490F491CFFF7CEFA6B
:100C4000E1684904490E4843E168490F491CFFF730
:100C5000C5FA10BD0120C00310BD7D20000210BDEB
:100C6000001002400024F400F8B504007ED0207883
:100C70003827C007E94D002846D0A868E968384001
:100C80008907890F102802D008280BD001E003291A
:100C900008D001206268000482420AD12968014319
:100CA000296015E0286880032ED560680028DDD013
:100CB0002AE0052301211B0489049A422A6802D1F3
:100CC0000A432A60EAE782432A602868884328604A
:100CD000606800280CD0FFF733FC064604E0FFF7FD
:100CE0002FFC801B642873D828688003F7D50BE09D
:100CF000FFF726FC064604E0FFF722FC801B642871
:100D0000F1D828688003F7D42078800769D5A868CF
:100D1000E96838408A070721920FC902102802D0DB
:100D2000002813D001E0022A10D0E068002846D045
:100D3000286888432169084328602868FF21013119
:100D400008432860FFF7FCFB06462CE02A685205A2
:100D500002D5E268002A89D06A687F231B029A4381
:100D600063691B021A436A60002800E08DE00ED11F
:100D70002868884321690843286028680121800485
:100D8000400F8140A648FFF729FAA6490860A64807
:100D90000068FFF761FD002877D122E0FFF7D0FB64
:100DA000801B02289FD828684005F7D568687F21F6
:100DB00009028843616909020843686011E02968F3
:100DC000FF20013081432960FFF7BAFB064605E0AA
:100DD00098E0FFF7B5FB801B022884D828684005FF
:100DE000F7D42078914E00072ED5A8688006400FD2
:100DF00003280AD0A0690028306A16D001210843D0
:100E00003062FFF79DFB07460BE0306A80071BD579
:100E1000A06900289FD017E0FFF792FBC01B0228B3
:100E200070D8306A8007F7D50EE040084000306285
:100E3000FFF786FB074604E0FFF782FBC01B022892
:100E400060D8306A8007F7D4207840076CD5A8684E
:100E500000278006400F042818D0E86BC00008D493
:100E6000E96B012000070143E963E96B01400127B9
:100E700000916F480168C90519D4016882151143B2
:100E80000160FFF75DFB00900DE083E0F0698007F3
:100E90004AD5A06800287DD046E0FFF751FB0099B5
:100EA000401A02282ED862480068C005F5D5A1680E
:100EB000012910D004200529F16911D04908490001
:100EC000F161F1698143F161A068002816D0FFF754
:100ED00037FB00900EE0F06901210843F061F3E771
:100EE0000143F161F7E7FFF72BFB0099411A5148E5
:100EF000814265D8F0698007F5D50EE0FFF720FB49
:100F0000009007E05CE0FFF71BFB0099411A49489D
:100F1000814255D8F0698007F5D4002F04D0E96BE1
:100F2000012000078143E963E069002873D0A968C4
:100F30008906490F02294DD0012636060228286865
:100F400005D0B0432860FFF7FBFA04463AE0B0430F
:100F50002860FFF7F5FA074604E0FFF7F1FAC01B37
:100F600002282DD828688001F7D4616A206AA26A15
:100F70000843E16A120211430843216B0843E96800
:100F80002D4A11400843E860286830432860E8682B
:100F9000012100E03DE009070843E860FFF7D0FACF
:100FA000044604E0FFF7CCFA001B022808D82868A2
:100FB0008001F7D52FE0FFF7C3FA001B022801D903
:100FC0000320F8BD28688001F5D4E8681B49084073
:100FD000E86020E00128F4D0E868226A8107890FE0
:100FE000914216D17021626A0140914211D17F2154
:100FF000A26A09020140120291420AD11F2149044A
:10100000E26A0140914204D1400F216B40078842BF
:1010100001D00120F8BD0020F8BD00000010024002
:101020000024F400100000200800002040100240BE
:1010300000700040881300008C80C11FFCFFFEEF91
:10104000F8B504000CD0606A002500280AD025619C
:10105000656126464036A562707F002808D00BE007
:101060000120F8BD6168C81FFD38F2D0E561F0E7E6
:101070003577204600F05CF802227277206801681C
:101080004023994301600723E1681B02994201D97B
:10109000002001E0012000030F273F02B94202D0E7
:1010A000994200D0A562FF236168053319402127CA
:1010B000A368BF023B40194323691340227D1943B3
:1010C000D207D20F11430123A2695B021A401143D8
:1010D000E26938231A401143226A80231A401143DF
:1010E000A26A9B011A40114322681160A16904227F
:1010F000090C1140626A10231A401143626B0823E5
:101100001A4011430F23E2681B021A4011430122C7
:10111000120310400143206841602068C1695210E9
:101120009143C1612566012070770020F8BD000061
:1011300010B586B0044614216846FFF74DF81249F1
:10114000206888421DD11148026881140A43026058
:101150000068084005900D484038416B012211435A
:101160004163406B694610400590E02000900220EA
:101170000190002002900390049005200007FFF7E3
:1011800025F906B010BD00000030014040100240BB
:10119000094910B5401E884201D9012010BD074CF5
:1011A00060610321081F00F093FD0020A06107206B
:1011B0002061002010BD0000FFFFFF0000E000E004
:1011C00010B5014680310A78012A15D001220A7033
:1011D00024224A600268136814686408640014607A
:1011E00001225207934300224266006803602020D8
:1011F00048600A70104610BD022010BD70B504464C
:1012000005468034207801281AD00120207024203F
:101210006060286806680268520852000260286808
:10122000826807235B069A430A438260284600F0DF
:1012300029FB28680660202060600020207070BDB7
:10124000022070BD70B50446054680342078012820
:1012500019D0012020702420606028680668026888
:1012600052085200026028688268D200D2080A43FD
:101270008260284600F006FB286806602020606037
:101280000020207070BD022070BD70B5040005D034
:10129000254680356868002802D006E0012070BD30
:1012A00000202870204600F027F82420686020687D
:1012B0000168490849000160204600F09DFB0128B3
:1012C000EDD0A06A002802D0204600F0FDFA206888
:1012D00041680922D20291434160206881682A2234
:1012E000914381602068016801221143016020461A
:1012F00000F050FB70BD000070B58CB004461421A6
:101300006846FEF769FF182105A8FEF765FF244A25
:1013100021680120234C02260025914221D105900D
:10132000069505A8FFF7FCFA002801D0FFF739F869
:101330001C4840300268012189030A4302600068AA
:1013400008400B90606B30436063606B02953040E7
:101350000B90C020009003956946019604951248B1
:101360001AE0124A914219D1E26B012149040A4361
:10137000E263E26B0A400B92616B01436163616B54
:101380000490C907C90F0B910C210091052002950B
:101390000196039569460007FFF718F80CB070BD79
:1013A000003801400010024000040050004400409A
:1013B000FEE701688A69D243920701D400228A625B
:1013C00000688169C943C90703D0816901221143BB
:1013D00081617047F7B50446006882B081690026D4
:1013E0002546C906403537460092002949DA1021C2
:1013F000C16136E00398401C33D0FFF7A1F8009993
:10140000411A0398814201D800282AD121684A68EC
:1014100001208003AB7802409C468B69DB431B04B0
:101420001AD4824218D06246202A15D04A68024354
:101430004A60FFF785F800900EE0FFF781F8009909
:10144000401A192808D9616C202001436164687032
:101450000020A8702870012620688069C04380069B
:10146000EBD420688069C043800602D5002EC1D02D
:1014700004E0002E02D121682020C8610420074327
:10148000012621688869C20504D50122174312028A
:10149000CA610126410508D508210F432268C90108
:1014A000D1610126800502D40AE0800506D502201C
:1014B000074321680002C861012601E0002E0FD019
:1014C0002046FFF776FF20684168074A11404160D7
:1014D000606C38436064202068700020A870287019
:1014E000304605B0F0BD000000E800FE890510B5EB
:1014F000890D12041143029C1943026821434900DB
:1015000050684908630D034C2343984308435060D7
:1015100010BD0000FF63FF03F8B51D4617460E46D9
:10152000044609E0681C07D0FFF70AF80699401A3C
:10153000A8420BD8002D09D0206881693046884325
:101540000FD00020B842EDD00020F8BD616C202003
:1015500001436164403460700020A070207001205D
:10156000F8BD0120EEE770B516460D4604460FE0C3
:10157000324629462046FFF72DFF002801D00120E2
:1015800070BDFEF7DDFF801BA84208D8002D06D0F5
:1015900020688069C0438006EAD4002070BD616C79
:1015A000202001436164403460700020A0702070EE
:1015B000E5E770B516460D46044611E03246294669
:1015C0002046FFF707FF002801D0012070BD681CEE
:1015D00006D0FEF7B5FF801BA84208D8002D06D024
:1015E00020688069C0438007E8D4002070BD616C2A
:1015F000202001436164403460700020A07020709E
:10160000E3E70000F0B587B014216846FEF7E4FD7B
:101610002748426B20210A434263426B0A400592ED
:10162000416B012529434163416B29400591426B80
:1016300002210A434263426B0A400592426B082131
:101640000A434263406B1B4C084005273F07059047
:10165000002221463846FEF76CFF174E0022314625
:101660001648FEF766FF009400240195029469462F
:1016700038460394FEF7AAFE029469460F48009686
:1016800001950394FEF7A2FE03204003009001940D
:10169000694602940948FEF799FE0F2000900194D4
:1016A000694602940648FEF791FE07B0F0BD0000BF
:1016B00000100240101900000380000000040050D8
:1016C000000C005010B513481149016012494160E7
:1016D000002181600161416181610122C161C260BB
:1016E0000162FEF77DFF002801D072B6FEE70021FF
:1016F0000848FEF72BFF002801D072B6FEE7002154
:101700000448FEF748FF002801D072B6FEE710BD7E
:101710000054004014000020BC7D701010B511482A
:101720000F490160FF2105314160002107228160DE
:1017300012020161C2604161C16101220162520273
:101740004162826181620722C262016308214163B2
:10175000FFF776FC002801D072B6FEE710BD00004E
:10176000003001406000002010B5184816490160A3
:10177000E1214902416000218160C1600161816114
:10178000C16101620C22416242618162FFF77DFD0D
:10179000002801D072B6FEE700210C48FFF752FD89
:1017A000002801D072B6FEE700210848FFF726FDA9
:1017B000002801D072B6FEE70448FFF701FD0028BB
:1017C00001D072B6FEE710BD00380140C400002011
:1017D00010B50D480B490160E1214902416000212B
:1017E0008160C16001618161C16101620C2241625D
:1017F00042618162FFF749FD002801D072B6FEE721
:1018000010BD00000044004054010020FEE7704776
:10181000704710B5FFF704F810BD30B591B0342112
:101820006846FEF7D9FC002401200D940E940F9415
:1018300040021094FFF74EF8012000900004019040
:101840000320089008200A90800302250B9007953A
:1018500000030C9009946846FFF706FA002801D0AF
:1018600072B6FEE707200D900F9402210E9510949A
:101870000DA8FFF7FBF8002801D072B6FEE711B003
:1018800030BD7047F8B50446416E4034002915D08C
:1018900000688168806809014D0F0A4E400F374685
:1018A000315C083F385CC000FEF798FC6085785DCD
:1018B000715DC000FEF792FC2085F8BD01206085B7
:1018C000FAE700002C1F000810B5018DC90707D0EA
:1018D00001684A6801235B049A43C36A1A434A6059
:1018E000018D890707D501684A6801231B049A43C3
:1018F000036B1A434A60018D490707D501684A689E
:1019000001239B049A43436B1A434A60018D0907E4
:1019100007D501684A680123DB039A43836B1A43A6
:101920004A60018DC90607D50268916801231B032F
:101930009943C36B19439160018D890607D50168EE
:101940008A6801235B039A43036C1A438A60018D02
:10195000490612D503685A6801210905446C8A4377
:1019600022435A60426C8A4207D1026851680323BD
:101970005B059943836C19435160018D090607D5B6
:1019800001684A680123DB04C06C9A4302434A6041
:1019900010BD0000FEB50546002680350446EE6009
:1019A000FEF7CEFD019020680068124F000709D5B0
:1019B00001210097002249052046019B00F0D0F844
:1019C00000280DD12068006840070BD50121009741
:1019D000002289052046019B00F0C2F8002801D0B2
:1019E0000320FEBD20206860A860E6662E700020FF
:1019F000FEBD0000FFFFFF01F8B5044680682169C5
:101A0000E2690843616900251143226808431168AF
:101A10004B4B1940014311602068416803221203B7
:101A20009143E26811434160A169206A084321683B
:101A30008A68444B1A4002438A602068C16A626A1D
:101A4000090909011143C1623F492068884211D147
:101A50003E4840698007800F0FD0012806D0022839
:101A600002D003280BD103E0022109E0042107E0A2
:101A7000082105E03649884201D1002100E010210B
:101A80000120E369C003334A334E344F834227D1E8
:101A9000002906D0022907D0042907D008293FD100
:101AA00008E0FFF78FF803E0104603E0FFF79EF829
:101AB00000283AD0616A4900715AFEF78FFB6168CD
:101AC00040004A088018FEF789FB01461039B942E8
:101AD00026D82249491C01400007400F084322E054
:101AE000002906D0022907D0042907D0082917D1D8
:101AF00008E0FFF767F803E0104603E0FFF776F829
:101B0000002812D0616A4900715AFEF767FB6168CC
:101B10004A088018FEF762FB01461039B94201D924
:101B2000012502E080B22168C860204601214030D2
:101B3000418501850020206760672846F8BD0000C8
:101B4000F369FFCFFFF4FF1100380140401002405D
:101B5000004400400024F4000C1F0008EFFF0000C8
:101B6000FFB581B005461746044680350A9E54E00D
:101B7000701C52D0FEF7E4FC0499401AB0422FD8F2
:101B8000002E2DD020680168490746D5C069C043A2
:101B9000000542D401202168C0020862EFF31080E2
:101BA000012181F3108821680B68FF22A132934341
:101BB0000B6080F31088EFF31080012181F310880F
:101BC00021688A68520852008A6080F310882020B9
:101BD0006860A860E86000202870032005B0F0BDB0
:101BE000EFF31080012181F3108821680A68FF2338
:101BF000A1339A430A6080F31088EFF3108001212B
:101C000081F3108821688A68520852008A6080F344
:101C1000108820206860A860DDE72068C16902980C
:101C2000884304D00020B842A2D00020D6E701208B
:101C3000F9E70000F8B5164C05252078154E01236C
:101C40002D0700901B032A460421304600F026F899
:101C50002070607801230090DB022A46082130467C
:101C600000F01CF86070A078FF23009001332A4632
:101C70000121304600F012F8A070E07801230090B6
:101C8000DB03054A0221304600F008F8E070F8BD99
:101C900000000020000C00500004005070B51D46EC
:101CA0001646049CFEF740FC002808D0002C04D106
:101CB000002229463046FEF73CFC012070BD002C76
:101CC00004D0012229463046FEF733FC002070BDC7
:101CD0008307FF22DB0E9A408907090E99400028EE
:101CE00008DB830809489B001B18186890430843C9
:101CF000186070470007000F0838830804489B00ED
:101D00001B18D86990430843D861704700E400E08D
:101D100000ED00E010B53220FEF746FB302000F069
:101D200049F80520FEF740FB302000F043F8012081
:101D3000FEF73AFB302000F03DF80A20FEF734FBB6
:101D4000202000F037F80A20FEF72EFB282000F0B4
:101D500031F80120FEF728FB082000F02BF80120C5
:101D6000FEF722FB012000F025F80120FEF71CFB06
:101D70000120FEF719FB062000F01CF80120FEF7F9
:101D800013FB0C2000F016F810BD10B5002806D08B
:101D9000012806D0022806D0032807D105E08031AB
:101DA00004E0C03102E0943100E0D431C8B200F068
:101DB00001F810BD1CB5010909010C220B461343A3
:101DC0006C462371082319430001617101461143D8
:101DD000A1711843E07164200090042301AA7E21C0
:101DE0000148FEF757FC1CBD140000201CB501097A
:101DF00009010D220B4613436C4623710923194335
:101E00000001617101461143A1711843E071642022
:101E10000090042301AA7E210148FEF73BFC1CBD73
:101E20001400002010B5044602E0641CFFF7DEFF3A
:101E300020780028F9D110BDFEF7FAFCFFF7EDFC81
:101E4000FFF7E0FBFFF73EFCFFF768FCFFF7C0FC85
:101E5000FFF78AFC05240122240711032046FEF720
:101E600068FB0122D1022046FEF763FB012211022A
:101E70002046FEF75EFB0122D1031448FEF759FB12
:101E8000FFF748FF02210020FFF77FFF10A0FFF7B8
:101E9000C9FF7D20C000FEF787FA00210120FFF76F
:101EA00074FF10A0FFF7BEFF00210220FFF76DFFB7
:101EB0000FA0FFF7B7FF00210320FFF766FF0FA079
:101EC000FFF7B0FFFFF7B6FEFCE70000000400508C
:101ED000425935484220454D452053595354454DAC
:101EE00000000000415A3A203131342E35310000D3
:101EF000454C3A2031392E313900000049503A2002
:101F00003131342E352E312E340000000100020014
:101F10000400060008000A000C0010002000400029
:101F20008000000101010103070100000804020410
:101F30000801010100000000000000000000000096
:101F40000000000000000000000000000000000091
:101F5000000000000100000002000000030000007B
:101F60000400000006000000070000000800000058
:101F70000900000000000000000000000000000058
:101F8000000000000100000002000000030000004B
:101F900004000000B41F000800000020140000002E
:101FA00004010008C81F00081400002034080000C5
:101FB00020010008000000000100000004000000F3
:081FC000000000000024F40001
:04000005080000C12E
:00000001FF
